:020000040800F2
:10000000008601206D020008B3530008D73B0008AA
:1000100079520008310E0008216A00080000000033
:10002000000000000000000000000000AD0100081A
:1000300051110008000000000902000835620008A4
:10004000870200088702000887020008715800082C
:10005000870200088702000887020008870200085C
:100060006512000887020008751200088702000860
:10007000870200088702000887020008870200083C
:1000800087020008870200088702000800000000BD
:100090000000000000000000000000007B120008CB
:1000A00087020008F562000887020008870200083E
:1000B00087020008870200088702000887020008FC
:1000C00087020008870200088702000887020008EC
:1000D00087020008156A0008870200080000000077
:1000E000870200088702000887020008000000005D
:1000F000000000000000000000000000870200086F
:10010000000000008702000887020008870200083C
:1001100000000000000000000000000000000000DF
:10012000870200088702000889100008870200087B
:10013000870200080000000000000000000000002E
:10014000000000000000000000000000870200081E
:100150009510000887020008A11000088702000817
:10016000870200088702000800000000000000006D
:10017000000000000000000000000000000000007F
:1001800000000000870200080000000000000000DE
:100190008702000887020008DFF80CD000F092FB0D
:1001A0000048004715910208008601202C4B196871
:1001B0000868B0E8F04F80F30988BFF36F8F4FF005
:1001C000000080F3118870470000000008480068B4
:1001D000006880F308884FF0000080F3148862B64E
:1001E00061B6BFF34F8FBFF36F8F00DF00BF00BF5B
:1001F00008ED00E0DFF80C00016841F470010160D7
:10020000704700BF88ED00E0EFF30980BFF36F8F08
:10021000134B1A681EF0100F08BF20ED108A20E95A
:10022000F04F106009B44FF0500080F31188BFF315
:100230004F8FBFF36F8F36F0B9FA4FF0000080F3A5
:10024000118809BC19680868B0E8F04F1EF0100F5B
:1002500008BFB0EC108A80F30988BFF36F8F704736
:1002600074010020EFF305807047000006488047C6
:1002700006480047FEE7FEE7FEE7FEE7FEE7FEE78B
:10028000FEE7FEE7FEE7FEE7E562000899010008E9
:100290002DE9F05F0546002092469B4688460646BB
:1002A000814640241BE0284641464746224600F04E
:1002B00050FA53465A46C01A914110D31146184677
:1002C000224600F037FA2D1A67EB01084F46224606
:1002D0000120002100F02EFA17EB00094E41201EEC
:1002E000A4F10104DFDC484631462A464346BDE816
:1002F000F09F10B5431A934209D28318881803E07F
:1003000010F8011D03F8011D521EF9D210BD40EA7C
:1003100001039B0703D009E008C9121F08C0042A83
:10032000FAD203E011F8013B00F8013B521EF9D26A
:1003300010BDD2B201E000F8012B491EFBD270477C
:100340000022F6E710B513460A4604461946FFF7A1
:10035000F0FF204610BD421C10F8011B0029FBD104
:10036000801A704710B5002200E0521C835C8C5C40
:10037000A34201D1002BF8D1D8B2E1B2401A10BD8E
:1003800030B504460020034600E05B1C934203D2D4
:10039000E05CCD5C401BF8D030BD034611F8012B6A
:1003A00000F8012B002AF9D1184670472DE9FE4FBD
:1003B000804681EA0300C00F0C46009021F0004106
:1003C00023F00045B8EB0200A94105D24046214682
:1003D00090461C460B46024623F00040104347D08F
:1003E000270DC7F30A00C3F30A510290401A019087
:1003F00040286BDAC3F3130040F4801B0098924648
:1004000020B10023D2EB030A63EB0B0B0198594692
:10041000C0F14002504600F08DF906460D465046A8
:100420005946019A00F0A5F910EB0800614100243B
:1004300087EA115284EAE7731A4340D0009A62B304
:10044000019A012A4FEA075215DC001B61EB0201F9
:100450004FF0004202EA0752CDE90042001C41F58C
:10046000801132462B4600F0DCF903B0BDE8F08F76
:1004700040462146F9E7001B61EB0201001C41F5F3
:10048000801300185B412018A2F5001747EB030109
:1004900040EAD570B6196D4111E06D084FEA360695
:1004A00045EAC0754FEA0752001B61EB0201001CD0
:1004B00041F5801149084FEA300000195141324698
:1004C0002B4603B0BDE8F04F00F09CB90098012224
:1004D00040000023D0EB020263EBE073009821465A
:1004E0004FEAE074B8EB000061EB0401E9E783F048
:1004F00000435BE781F0004158E72DE9FE4F81EAB8
:10050000030404F0004421F0004100944FF0000B7C
:1005100023F0004350EA01045ED052EA03045BD0AA
:10052000C3F30A54C1F30A552C44A4F2F3340194E2
:10053000A0FB0254C1F3130141F48011C3F3130370
:1005400043F4801301FB024400FB034E840A970A24
:1005500044EA815447EA8357A4FB076802958D0A51
:1005600005FB07854FEA932C04FB0C542705029DDD
:100570004FEA065847EA1637B5EB08056EEB070C4D
:10058000870E920E47EA811742EA8312A7FB020107
:10059000B6EB0B0164EB00042B0D43EA0C335E1841
:1005A00044EB1C50DA465146E7FB0201C5F3130445
:1005B0004FEA0B3343EA14534FEA0432019C43EAF7
:1005C0000603A4F10C040294009CCDE900B400F0F1
:1005D00028F903B0BDE8F08F00200146F9E72DE9C6
:1005E000F04D81EA030404F0004B21F0004514466D
:1005F0004FF0000A23F0004150EA050220D054EAEF
:1006000001021DD0C5F30A570246C5F31303C1F317
:100610001300C1F30A5640F4801543F48013A7EB8E
:100620000608101BD64608F2FD3873EB050002D30E
:1006300008F1010801E092185B41B8F1000F03DAFC
:1006400000200146BDE8F08D00204FF480110646E1
:1006500084460EE0171B73EB050705D3121B63EBF3
:10066000050306434CEA010C49084FEA3000921892
:100670005B4150EA0107EDD152EA030012D082EA51
:10068000040083EA0501084305D0101BAB4106D2E4
:100690000122002306E000224FF0004302E06FF049
:1006A000010253101AEB06004CEB085110EB0A0044
:1006B00041EB0B01BDE8F04D00F0A4B80EB540F2DF
:1006C000334102910021CDE900110A460B4600F0AA
:1006D000A8F803B000BD00F0004230F000400AD09E
:1006E000C10D01F56071C0F3160042EA0151C20864
:1006F00040071143704700200146704701F0004356
:1007000030B421F0004150EA010206D00A0DA2F5F2
:100710006072C1F31301002A02DC30BC0020704774
:10072000440F44EAC104C100E01830BC00EBC250E1
:1007300000F031B8202A04DB203A00FA02F1002050
:1007400070479140C2F1200320FA03F3194390400F
:100750007047202A04DB203A21FA02F0002170477A
:1007600021FA02F3D040C2F1200291400843194619
:100770007047202A06DBCB17203A41FA02F043EA01
:10078000E07306E041FA02F3D040C2F1200291404A
:100790000843194670470029A8BF7047401C49000C
:1007A00008BF20F00100704710B4B0FA80FC00FAD6
:1007B0000CF050EA010404BF10BC704749B1CCF101
:1007C000200421FA04F411FA0CF118BF012121438D
:1007D0000843A3EB0C01CB1D4FEA00614FEA102048
:1007E00042BF002010BC704700EBC35010440029EA
:1007F000A4BF10BC7047401C490008BF20F0010096
:1008000010BC704710B5141E73F1000408DA401CC8
:1008100041F1000192185B411A4301D120F001001F
:1008200010BD2DE9F04D92469B4611B1B1FA81F20F
:1008300002E0B0FA80F220329046FFF77BFF0446D8
:100840000F4640EA0A0041EA0B0153465A46084364
:1008500013D0114653EA010019D0C8F140025046A6
:10086000FFF777FF05460E46504659464246FFF7CA
:1008700061FF084305D0012004E020463946BDE869
:10088000F08D0020054346EAE0762C4337430A9872
:100890006305E40AA0EB08000022FD0A44EA47547D
:1008A0000A3002D500200146E9E701051019694127
:1008B000DDE9084500196941BDE8F04DA2E70020D7
:1008C00070470000064C074D06E0E06840F0010369
:1008D00094E8070098471034AC42F6D3FFF760FC69
:1008E000DCBC0508FCBC050870B58C1810F8015B71
:1008F00015F0070301D110F8013B2A1106D110F8B9
:10090000012B03E010F8016B01F8016B5B1EF9D1BC
:100910002B0705D40023521E0DD401F8013BFAE742
:1009200010F8013BCB1A921C03E013F8015B01F8AD
:10093000015B521EF9D5A142D8D3002070BD000042
:10094000464910B54A6822F440324A604A68436812
:100950001A434A6001684A6822F480724A6001685A
:100960004A68036942EA03224A6001684A6822F041
:1009700040724A6001684A6883681A434A600168A5
:100980008A6822F400628A6001688A68C3681A4330
:100990008A60816A6FF07062D14201688A6822F0D1
:1009A00070628A6001688A680CD0836A1A438A6020
:1009B00001688A6822F040528A6001688A68C36AC6
:1009C0001A4301E022F040528A6001688A6822F0EE
:1009D00002028A6001688A68037E42EA43028A60F2
:1009E00090F82010002901684A680FD042F4006294
:1009F0004A6001684A6822F460424A6001684A68B5
:100A0000174C436A04EB43331A4301E022F40062BB
:100A10004A600168CA6A22F47002CA620168CA6A3E
:100A2000838B104C04EB03531A43CA6201688A6833
:100A300022F400728A6001688A6890F8303042EAD5
:100A400043228A6001688A6822F480628A600168B1
:100A50008A68406942EA8020886010BD0023014016
:100A600000E0FFFF0000F0FF1C4808B5016841F0FE
:100A700002010160006800F002000090184803F0D5
:100A80004EFB28200BF07CF900F0D0F820B314487E
:100A900003F0E6FB7021124803F09EFB104803F0C0
:100AA0001DFCBE210E4803F097FB0D4803F016FC19
:100AB00008210B4803F090FB094803F00FFC0021CC
:100AC000074803F089FB064803F008FC044803F0DC
:100AD000E6FB0A200BF054F9002008BD3038024034
:100AE000E80000202DE9F05F82468B4605240025B2
:100AF0004C4803F0B5FB70214A4803F06DFB4948B0
:100B000003F0ECFBAC21474803F066FB454803F0DB
:100B1000E5FB3321434803F05FFB424803F0DEFB73
:100B20000021404803F058FB3E4803F0D7FB3D4806
:100B300003F0B5FB50200BF023F906E005200BF085
:100B40001FF9641EE4B200F071F800F06FF80006BF
:100B500002D5002CF2D162E0002C60D0314803F0C5
:100B60007FFB71212F4803F037FB2E4803F0B6FBC3
:100B70002C4803F0EFFA2B4803F015FB294803F04B
:100B8000E9FA8146274803F00EFB264803F0E2FA13
:100B90008046244803F007FB224803F0DBFA0746AF
:100BA000204803F000FB1F4803F0D4FA06461D4816
:100BB00003F0F9FA1B4803F0CDFA0446194803F094
:100BC00037FB184803F06BFB45EA090548EA0521A5
:100BD00047EA012108094FF47A714843000D00EEFD
:100BE000100A380746EA1051F8EE400AB2EE040A3D
:100BF00044EA01204FF4FA6180EE801A48430A4922
:100C000001EB105000EE900A0020F8EE600A8AED29
:100C1000001A80EE801A8BED001ABDE8F09F0120CB
:100C2000FBE70000E80000200CFEFFFF10B50B48BA
:100C300003F016FB7121094803F0CEFA074803F0D0
:100C40004DFB064803F086FA0446044803F0F0FA28
:100C5000024803F024FB204610BD0000E8000020FD
:100C600010B504F02BFD9FED091AF0EE400A80EE5E
:100C7000810ADFED070A06F083FAF7EE000A30EE8C
:100C8000C00ADFED040A20EE200A10BD80E6C54749
:100C900001DE423E002A2D472DE9F0411D462DED93
:100CA000068B14460E4607469DED0D8ADDED0C8A37
:100CB00011FB06F012FB040000EE100AB8EEC00AA9
:100CC00006F058FEF0EE400A00EE107AB8EEC00AC8
:100CD00005F0D6FFF0EE409A17FB07F014FB040076
:100CE00000EE100AB8EEC00A06F044FEF0EE400A2C
:100CF00000EE106AB8EEC00A05F0C2FFB0EE409AEE
:100D000006F096F9F8EEE80A60EE208AB0EE490A9D
:100D100006F068FDF0EE400A00EE105AB8EEC00A88
:100D200020EE80AAB0EE690A06F05CFD4AEE008A69
:100D3000B0EE690A06F07CF9F8EEC80A20EE20AAA7
:100D4000B0EE490A06F04EFD4AEE408AB0EE690A5E
:100D500006F06EF9F0EE400A00EE105AB8EEC00A46
:100D600020EE809AB0EE690A06F03CFDF8EEC80A63
:100D700000EE809AB0EE680AF0EE490A05F080FFB6
:100D800010EE100AFFF7A7FC9FED091B53EC112B87
:100D9000FFF7B3FB9FED081B53EC112BFFF71FFC74
:100DA000FFF7ACFCBDEC068B00EE100ABDE8F0814D
:100DB00000000000008066404AD8124DFB21094027
:100DC00070B500252C46154800F026FC0521134877
:100DD00000F0CCFB114800F06BFB05440F4800F01D
:100DE00081FC01200AF0CCFF641CE4B2082CEAD399
:100DF000E8084000FFF762FC9FED091B53EC112B44
:100E0000FFF77BFB9FED081B53EC112BFFF775FBE6
:100E1000FFF774FC00EE100A70BD0000FC05002016
:100E20006666666666660A40000000000000303FA5
:100E3000FEE7000030B587B014216846FFF780FA5E
:100E40000F48016841F00201016000684FF400445E
:100E500000F0020005900120CDE90040029003203F
:100E6000084D03906946284600F00EFF01222146F6
:100E7000284601F006F8044803F051F907B030BDE8
:100E80003038024000000240D8000020022000F06C
:100E900023B800001CB501A80090042303221521EB
:100EA0000C4803F045FA9DF804109DF8050001F088
:100EB0000F0140EA01210748083801609DF807103A
:100EC0009DF806200F3102F00F0241EA0221416035
:100ED0001CBD0000D800002002461521014803F087
:100EE0006BBA0000D80000200B46024615210148CD
:100EF00003F090BAD800002070B50A4D4FF40044BA
:100F000000222146284600F0BCFF0A2000F006FE21
:100F100001222146284600F0B4FFBDE8704064205D
:100F200000F0FCBD000002400321E520FFF7DCBF1C
:100F3000FFF7E2BF2DE9F84304461CF0FCFD8146B3
:100F400020461CF0EFFD0446406BB0F5A02F0ED1FB
:100F5000A06B2A4F2A4D07280BD2384618F06EFF97
:100F600000906069BDF80010818160690560BDE88E
:100F7000F88381B24022484617F0C2FEDFF8848031
:100F8000002660B1404618F059FF00906069BDF836
:100F900000108181606905602069C670E7E7208FD5
:100FA0004FF4804281B2484617F0AAFED8B14046BD
:100FB00018F044FF00906069BDF8001081816069FD
:100FC00005602069C6702169FF2081F8220021692F
:100FD00002200884384618F031FF00902069BDF8DF
:100FE0000010C183C3E7208F4FF4004281B248460E
:100FF00017F086FE0028C5D1B9E70000DA922F006D
:101000001CC80308A2A2A90038B504461CF04EFD76
:101010001C280BD120461CF04DFD0446694618F0F3
:101020004FF801226946204618F082F838BD0000CA
:101030000421014800F018BF000002407CB50E4DAD
:101040000EA168466A8F05F0E3FD0D4C6946D4F8A1
:10105000C40104F5D6741FF069FC6A8E09A16846C4
:1010600005F0D6FD6946A06A1FF060FC6A8FA16892
:10107000206820F02BFC7CBD580000202564000077
:10108000D008002025646D00014800F0D5BB0000A9
:10109000BC060020014800F0CFBB0000AC070020D8
:1010A000014800F0C9BB00000C08002001681823AB
:1010B000CAB2103AB2FBF3F2054B6FF30901032AEF
:1010C0009B5CC36500D9091D816508467047000017
:1010D0004478030810B5014600208B698A6A4FF0F6
:1010E000C07453B1B3F5005F15D072B1012A0CD0B2
:1010F000022A0AD0032A09D104E01AB1012A06D033
:10110000022A03D1C96AC90100D5012010BDC96AEC
:10111000A142FAD010BD002AF7D0012AF2D0022A4B
:10112000F3D0032AF3D010BD30B50468256825F448
:1011300080252560046863608368402B036803D0C2
:1011400099600068C26030BD9A600068C16030BDBF
:10115000704710B5292000F00DF84FF6FF7101EA35
:101160000024282000F006F8204310BD002000F0E5
:1011700001B8000002462421014803F01DB9000017
:10118000240100200B4602462421014803F042B905
:101190002401002010B5052404E0642000F0BEFC0A
:1011A000641EE4B2FFF7E2FF362802D0002CF4D12F
:1011B00006E02CB100210120FFF7E4FF002010BD64
:1011C000012010BD10B5052404E0642000F0A6FC49
:1011D000641EE4B2FFF7CAFF362802D0002CF4D117
:1011E00006E02CB108210120FFF7CCFF002010BD44
:1011F000012010BD38B519480524016841F00201ED
:101200000160006800F002000090154802F087FFBE
:1012100004E0642000F082FC641EE4B2FFF7A6FF45
:10122000362802D0002CF4D116E0ACB10021012008
:10123000FFF7A8FF00210820FFF7A4FF7F210A2065
:10124000FFF7A0FF47210D20FFF79CFF00210E2094
:10125000FFF798FF002038BD012038BD303802402C
:1012600024010020024901200870042000F000BD84
:1012700004000020102000F0FBBC202000F0F8BC8F
:101280007CB5134D114C0022D5F8800194F825103F
:1012900005F5C07517F073F994F8261000226869F7
:1012A00017F06DF914F8252F0AA1684605F0B0FC77
:1012B000694668681FF03AFB627806A1684605F047
:1012C000A7FC6946A8691FF031FB7CBD58000020CF
:1012D000D00800202564000072B6FEE710B51CF0AF
:1012E000E5FB072804D1BDE81040024804F08EB8A1
:1012F00010BD0000D008002070B5022004F0DEFB15
:101300000546012004F0DAFB0446002004F0D6FB79
:1013100044EA002145EA0120010201D540F07F4066
:1013200070BD70B5052004F0C9FB0546042004F02B
:10133000C5FB0446032004F0C1FB44EA002145EA52
:101340000120010201D540F07F4070BD78B5002436
:10135000009490F83C20012A19D0012280F83C200A
:101360000A6807230568092A13D9EE680A3A02EBCE
:10137000420293409E43EE600B788A680A3B03EB7F
:1013800043039A400368DD682A43DA6010E00220D4
:1013900078BD2E6902EB420293409E432E610B788A
:1013A0008A6803EB43039A4003681D692A431A6164
:1013B0004A681F23072A13D205686E6B521E02EB80
:1013C000820293409E436E630A8893B20A79521E4A
:1013D00002EB820293400268556B2B43536327E074
:1013E00005680D2A12D22E6BD21F02EB82029340A7
:1013F0009E432E630B790A88DB1F92B203EB8303B3
:101400009A4003681D6B2A431A6311E0EE6A0D3A95
:1014100002EB820293409E43EE620B790A880D3BF9
:1014200092B203EB83039A400368DD6A2A43DA62CF
:101430001B4B0568194A9D420AD10D68122D07D130
:10144000556825F400055560556845F480055560DC
:1014500005689D421DD1134D0B68AB4201D0112B85
:1014600017D1536823F480035360536843F4000397
:1014700053600968A9420CD10B490C4A0968B1FBB9
:10148000F2F101EB8101490000E0491E00910029C1
:10149000FBD180F83C40002078BD000000230140D3
:1014A00000200140120000107001002040420F0097
:1014B0000068C06C704770B504004FF0000503D0A1
:1014C000206C002610B107E0012070BD204600F01E
:1014D0001DF8666484F83C60206CC00610D4206C53
:1014E00020F4885040F0020020642046FFF728FADC
:1014F0006664206C20F0020040F00100206400E0EF
:10150000012584F83C60284670BD000010B586B007
:10151000044614216846FEF713FF114920688842EB
:101520001CD110480021026842F4807202600068F9
:1015300000F4807005900B481438026842F00102F4
:101540000260006800F00100059002200090032076
:10155000CDE901016946044800F096FB06B010BDD4
:101560000020014044380240000002402DE9F041D3
:10157000044600680D4681684FF0000749050BD509
:101580008068C00508D5206C40F02000206484F8F5
:101590003C700120BDE8F08100F078FC064613E0C5
:1015A000681C11D025B100F071FC801BA8420BD93A
:1015B00020680068800707D4206C40F00400206495
:1015C00084F83C700320E5E7206800688007E7D5D1
:1015D00021686FF012000860206C40F400702064F5
:1015E0002068816811F0405F13D1217E89B9C16AFA
:1015F00011F4700F02D0806840050AD4206C20F4EA
:1016000080702064206CC00403D4206C40F0010082
:1016100020640020BEE7000018B50021009190F87A
:101620003C20012A07D0012280F83C200268936800
:10163000DB0702D011E0022018BD936843F00103DC
:101640009360244A244B1268B2FBF3F202EB42028D
:1016500000E0521E0092002AFBD102689368DB076B
:101660002ED0036C40F20164A34343F480730364FF
:1016700053685B0505D5036C23F4005343F4805392
:101680000364036CDB0404D5436C23F0060343645A
:1016900000E0416480F83C1010496FF022031360B1
:1016A00049680068C90602D00D49884210D1816896
:1016B00011F0405F0CD1816841F08041816007E00A
:1016C000016C41F010010164416C41F00101416481
:1016D000002018BD7001002040420F00002301408F
:1016E0000020014090F83C1001290CD0012180F825
:1016F0003C1001688A6822F001028A6001688968EA
:10170000C90702D007E002207047016C21F488511C
:1017100041F001010164002180F83C100846704747
:101720002DE9F0410446876D00F0B0FB064694F8C1
:1017300035000025022806D08020606584F83450EA
:101740000120BDE8F0812068016821F016010160E8
:101750002068416921F080014161206C08B9A06CCA
:1017600020B12068016821F008010160206801684B
:1017700021F0010101600CE000F088FB801B0528CE
:1017800007D920206065032084F8350084F83450A0
:10179000D7E720680068C007EED194F85C103F20BE
:1017A0008840B860012084F8350084F83450002067
:1017B000C7E790F83510022903D080214165012048
:1017C0007047052180F835100068016821F001019B
:1017D00001600020704770B504002BD094F83500EC
:1017E000022826D02068016821F0010101602068EC
:1017F0000025056020684560206885602068C56018
:10180000206805612168212048612046FFF74EFCD1
:10181000E56325646564A564E564256594F85C204A
:101820003F2191408160656584F8355084F83450DB
:10183000002070BD012070BD2DE9F84304464FF033
:101840000009CDF8009063484FF41651A56D00686B
:10185000B0FBF1F72E6894F85C10082000FA01F153
:1018600031420FD021680A6852070BD50A6822F06E
:1018700004020A6094F85C108840A860606D40F033
:101880000100606594F85C104FF0010808FA01F05F
:10189000304208D021684969090604D5A860606D06
:1018A00040F00200606594F85C10042088403042EB
:1018B00008D021680968890704D5A860606D40F0E8
:1018C0000400606594F85C1010208840304218D005
:1018D00021680968090714D5A860206801684903D0
:1018E00004D50068000308D5A16C07E00168C905AC
:1018F00003D4016821F008010160216C09B1204680
:10190000884794F85C1020208840304231D021680C
:101910000968C9062DD5A86094F835000528206807
:10192000016806D0490347D5006800031DD4616CE7
:101930001CE021F0160101602068416921F080015E
:101940004161206C08B9A06C20B12068016821F0C9
:101950000801016094F85C103F208840A86084F87A
:10196000358084F83490216D1FE0E16B09B1204689
:101970008847606D00282BD0606DC00714D005200B
:1019800084F835002068016821F0010101600098A9
:10199000401C0090B84203D820680068C007F6D108
:1019A00084F8358084F83490E16C002910D001B0BF
:1019B0002046BDE8F04308470168C905D5D4016851
:1019C00021F01001016084F8358084F83490CCE770
:1019D000BDE8F883700100202DE9F041044600F0D5
:1019E00055FA06465CB1022084F83500002584F8DB
:1019F00034502068016821F0010101600DE00120F0
:101A0000BDE8F08100F042FA801B052805D92020AE
:101A10006065032084F83500F2E720680068C0079D
:101A2000F0D12268116820480140D4E9010318432D
:101A3000D4E903363343184363691843A369184351
:101A4000E3691843236A18430843616A042903D1F0
:101A5000D4E90B1319430843106020684069666A93
:101A600020F0070130460E43012704280CD1A06A5C
:101A70000643E06A40B12046FFF72CFB20B140202E
:101A8000606584F83570BAE7206846612046FFF744
:101A90000DFB94F85C203F2191408160656584F8DE
:101AA00035700020ACE700003F8010F02DE9F041D8
:101AB0000446866D90F83400002501280DD00120E1
:101AC00084F8340094F835700020012F07D084F892
:101AD000340002252846BDE8F0810220FBE70227FA
:101AE00084F8357060652046FFF71EFB94F85C10A3
:101AF0003F208840B0602068016841F01601016015
:101B0000206C20B12068016841F008010160206864
:101B1000016841F001010160DCE7000070B5044696
:101B200000F0B4F90546601C02D004480078044473
:101B300000F0ACF9401BA042FAD370BDC4000020F5
:101B40002DE9F04F0022DFF808B101264FF00F0910
:101B500006FA02F401EA0403A34274D122F0030757
:101B60005F44D7F8088895074FEA157C09FA0CFA04
:101B70000AEA0805DFF8DC80404502D14FF0000892
:101B80001DE0DFF8D480404502D14FF0010816E097
:101B9000DFF8C880404502D14FF002080FE0DFF8BF
:101BA000C080404502D14FF0030808E0DFF8B48060
:101BB000404502D14FF0040801E04FF0070808FA51
:101BC0000CF8A84522D1284DD5F800C02CEA030C0A
:101BD000C5F800C02D1DD5F800C02CEA030CC5F8CF
:101BE00000C0214D0C35D5F800C02CEA030CC5F817
:101BF00000C02D1FD5F800C02CEA030CC5F800C0AA
:101C0000D7F8085825EA0A05C7F8085805685700A4
:101C10000323BB409D430560D50800EB8505D5F83F
:101C200020C057074FEAD76809FA08F72CEA070CD3
:101C3000C5F820C0C5689D43C5604568A54345609B
:101C400084689C438460521C102A81D3BDE8F08FC5
:101C50000030014000000240000402400008024041
:101C6000000C024000100240003C014070470000A0
:101C7000044910B50A68024202D00860FFF7F6FF77
:101C800010BD0000143C01402DE9F84FDFF8B8A169
:101C90000022012403254FF00F090AF1040BAAF1D9
:101CA000040E00BF0B6804FA02F63340B34273D14E
:101CB0000F7907F00307012F01D0022F16D1876893
:101CC0004FEA420805FA08FC27EA0C07D1F80CC0D5
:101CD0000CFA08FC4CEA070CC0F808C04768B74388
:101CE0000E79C6F3001696403E4346600E79F643E1
:101CF000B6070DD0C768560005FA06FC27EA0C07A0
:101D0000D1F808C00CFA06FC4CEA070CC0F80CC06D
:101D10000E7906F00306022E10D1D60800EB8608D5
:101D2000D8F8206057074FEAD76C09FA0CF7BE4382
:101D30000F6907FA0CF73743C8F8207006684FEAB6
:101D4000420C05FA0CF7BE430F7907F0030707FAB8
:101D50000CF7374307604E6816F4403F6DD03B4E9A
:101D6000376847F480473760366822F0030706F487
:101D700080460096364E07EB060CDCF8086897079D
:101D80003F0F09FA07F826EA0806DFF8C880404541
:101D900003D14FF000081EE04FE0DFF8BC80404563
:101DA00002D14FF0010816E0DFF8B080404502D1C3
:101DB0004FF002080FE0DFF8A880404502D14FF055
:101DC000030808E0DFF89C80404502D14FF004088A
:101DD00001E04FF0070808FA07F848EA0608CCF8CF
:101DE0000888DAF800605746D1F804C09E435FEADD
:101DF000CC2C00D51E433E60DBF800605F46D1F876
:101E000004C09E435FEA8C2C00D51E433E60DEF882
:101E100000607746D1F804C09E435FEA8C3C00D551
:101E20001E433E60084F083F3E68D1F804C09E4301
:101E30005FEACC3C00D51E433E60521C102AFFF4E2
:101E400031AFBDE8F88F0000083C01404438024043
:101E5000003001400000024000040240000802403F
:101E6000000C0240001002400069084000D0012030
:101E70007047426921EA02030A4043EA0241816154
:101E800070470AB1816170470904FBE70148806827
:101E900070470000C40000200248816802781144A5
:101EA00081607047C40000200B4810B5016841F400
:101EB00000710160016841F480610160016841F4D2
:101EC00080710160032000F0A9F80F2000F006F8EF
:101ED00000F04AF8002010BD003C024030B5054635
:101EE0001C4887B00024016841F0010101600068CE
:101EF00006A900F00100009001A800F003FA00F02C
:101F000031FA1549154AB0FBF1F11548491E026036
:101F100040F2E732C0E90324C0E90114846101F012
:101F200075F8040012D10E4801F09EF804000DD19E
:101F3000192000F046F8102D07D20022294619205A
:101F400000F04CF80748056000E0012407B0204687
:101F500030BD00004438024040420F000000014004
:101F600088080020C80000200C4882B0016841F4B5
:101F700080410160006800F4804000900748001F25
:101F8000016841F0805101600068002200F080503B
:101F900000900F21901E02B000F020B8443802409B
:101FA00000280DDB00F01F02012191404009800054
:101FB00000F1E020C0F88011BFF34F8FBFF36F8FA7
:101FC0007047002809DB00F01F0201219140400901
:101FD000800000F1E020C0F800117047F0B40E4B13
:101FE0001B680C46C3F30223C3F10705042D00D977
:101FF0000425191D072901D2002300E0DB1E01265C
:1020000006FA05F1491E214099409E40761E164071
:102010003143F0BC04F023BE0CED00E0064900F0B3
:10202000070208684FF6FF03184040EA0220034AFF
:1020300010430860704700000CED00E00000FA0556
:102040000C4A136823F00303034313600A48026831
:1020500042F004020260012909D0032901D040BFE7
:1020600020BF20BF016821F004010160704730BF2C
:10207000F8E700000070004010ED00E02DE9F843A3
:10208000044600684FF00109C1074FF0000601D176
:10209000400729D5DFF82081C8F86860FFF7F6FE11
:1020A0000746464D05E000BFFFF7F0FEC01B0228C3
:1020B00059D828680001F7D4A068217B800140EA44
:1020C0000170616808433D4984310860C8F8689030
:1020D000FFF7DCFE074604E0FFF7D8FEC01B02282E
:1020E00041D828680001F7D52078800752D53348B9
:1020F0004030016841F0805101600068304D00F0CF
:1021000080500090286840F480702860FFF7BEFE81
:10211000074604E0FFF7BAFEC01B022823D8286850
:10212000C005F7D5254D7035286810F4407020D0D3
:10213000218A01F4407181421BD02868214920F492
:102140004070C1F800900E6028602868C00710D069
:10215000FFF79CFE064641F2883707E0FFF796FE40
:10216000801BB84202D90320BDE8F88328688007A5
:10217000F4D521691148C1F301220830032A12D095
:10218000016821F4F81101602868218AC1F30B016C
:10219000084328602078000703D50B49207DC1F84B
:1021A000E0010020E0E70268084B22F4F812194031
:1021B0000A430260E8E7000000004742003802409E
:1021C00000700040400E474200104742FFFCFF0FE6
:1021D0002DE9F0470E46050065D0DFF81481D8F8E8
:1021E0000000F7B200F00700B04207D288F8007094
:1021F000D8F8000000F00700B04254D128683D4CE8
:10220000810712D5400703D5206840F4E0502060D4
:102210002878000703D5206840F4604020602068DB
:10222000A96820F0F000084320602878C0072DD06E
:10223000304968680839012812D0022813D00328D1
:1022400011D00968890700292DDA216821F00301DE
:1022500001432160FFF71AFE814641F2883A0EE001
:1022600009688903EFE709688901ECE7FFF70EFECB
:10227000A0EB0901514502D90320BDE8F087206891
:10228000696800F00C00B0EB810FEFD1D8F80010B6
:10229000404601F00701B14207D90770006800F01D
:1022A0000700B04201D00120E7E72878400705D5B4
:1022B0002068E96820F4E05008432060287800078F
:1022C00006D52068296920F4604040EAC1002060FA
:1022D00000F058F82168084AC1F30311515CC84066
:1022E0000649086006480068FFF7F8FD0020C4E7CB
:1022F000003C024008380240AEBD030870010020D7
:10230000C80000200F2202600C4A136803F0030388
:102310004360136803F0F0038360136803F4E05331
:10232000C36012684FF4E05303EAD202026104482A
:10233000006800F00700086070470000083802409D
:10234000003C02400448054900680968044AC1F39A
:102350008221515CC840704770010020083802405B
:10236000BEBD03080448054900680968044AC1F372
:102370004231515CC840704770010020083802406B
:10238000BEBD0308154810B5006810F00C021448D3
:1023900013D01449042A0FD0082A0ED10F4C241F41
:1023A0002268236802F03F025B0207D52068C0F371
:1023B0008810A0FB010106E0084610BD2168C1F3AA
:1023C0008811A1FB00010023FDF762FF2168C1F322
:1023D0000141491C4900B0FBF1F010BD0838024032
:1023E0000024F40040787D012DE9F84F04006ED000
:1023F0002078DFF84C93C007A9F104054AD009F111
:1024000004000168C1F38101012908D00068C0F30C
:10241000810002280AD1D9F80000400206D52868B8
:10242000800337D560680028E1D033E06068B0F5FC
:10243000803F10D0B0F5A02F286810D020F4803055
:102440002860286820F4802028606068A8B1FFF721
:102450001DFD06460DE0286840F48030F4E740F4A6
:1024600080202860F7E700BFFFF710FD801B64287D
:1024700073D828688003F7D50CE0FFF707FD064600
:1024800005E000BFFFF702FD801B6428F0D8286834
:102490008003F7D42078DFF8AC8280074FF0000A81
:1024A0003ED5A748001D016811F00C0F08D0006848
:1024B000C0F3810002280BD1D9F80000400207D4F4
:1024C0002868800716D5E068012800D112E033E1C2
:1024D000E068B8B10120C8F80000FFF7D7FC064655
:1024E00005E000BFFFF7D2FC801B0228C0D8286897
:1024F0008007F7D52868216920F0F80040EAC1007C
:1025000028600DE0C8F800A0FFF7C0FC064604E014
:10251000FFF7BCFC801B02281FD828688007F7D46F
:102520002078000722D5864F87486169703771B1DE
:1025300001210160FFF7AAFC064604E0FFF7A6FCB4
:10254000801B022809D838688007F7D50EE0C0F84C
:1025500000A0FFF79BFC064605E082E0FFF796FC33
:10256000801B02287DD838688007F7D42078400780
:1025700068D5DFF8CCB100270BF13C0BDBF800008D
:10258000C0000BD4DBF8001041F08051CBF80010F4
:10259000DBF80000012700F0805000906B4E30689F
:1025A000C00510D4306840F480703060FFF76EFCD6
:1025B000009005E0FFF76AFC0099401A022850D805
:1025C0003068C005F6D55E4EA0686C3601280FD085
:1025D0000528306810D020F001003060306820F00D
:1025E00004003060A068B8B1FFF750FC00900FE025
:1025F000306840F00100F4E740F004003060F7E795
:10260000FFF744FC0099411A41F28830814266D8B4
:1026100030688007F4D50EE0FFF738FC009007E043
:10262000FFF734FC0099411A41F28830814256D8B4
:1026300030688007F4D42FB1DBF8001021F080510E
:10264000CBF80010A069C8B33D49091D0968C1F362
:10265000810102294AD00228504607D0C8F86000FC
:1026600000E03CE0FFF712FC04463BE04746C8F8B8
:102670006000FFF70BFC064605E000BFFFF706FC15
:10268000801B02282BD828688001F7D4D4E90701E1
:102690000843A16A2E4A490802EB0141626A41EAF5
:1026A0008211084394F82C1040EA0161C9F8001027
:1026B00001203866FFF7EAFB044606E03EE000BF73
:1026C000FFF7E4FB001B022809D828688001F7D532
:1026D00034E000BFFFF7DAFB001B022802D9032019
:1026E000BDE8F88F28688001F4D427E00128F7D0EE
:1026F000D9F80000E26900F4800191421CD1226AFD
:1027000000F03F01914217D147F6C071626A014063
:10271000B1EB821F10D1A26A4FF0FF3300F44031B9
:1027200003EB5202B1EB024F06D194F82C1000F0EB
:102730007060B0EB016F01D00120D1E70020CFE73E
:102740000438024000004742800E474200700040BB
:102750000000FFFF0068503050F82100704700680B
:10276000503040F8212070472DE9F84389463D4913
:102770004FF4FA4C4FF47A730F68B7FBFCF15943EE
:102780000091017F012965D001250577022141775C
:102790000368CA21596203685321596201688B6832
:1027A0004FF0FF045FEA43584FF000034FF0030679
:1027B0000CD500BFDDF80080B8F10108CDF800802D
:1027C0004AD0D1F80C805FEA4878F3D4D1F8088079
:1027D00028F48068C1F808800168D1F80C8008F0FE
:1027E000800868F49068C1F80C80B7FBFCF14FF4E6
:1027F0007A77794300910168009F7F1E00972BD064
:10280000CF687F07F8D58E6826F007068E600168CE
:102810008E6816438E600268C2F8149012490A68E6
:1028200042F480020A60104908310A6842F48002CA
:102830000A6001688A6842F480428A6001688A6896
:1028400042F480628A6001684C6245770377002019
:10285000BDE8F8830220FBE74C624677037703204C
:10286000F6E7000070010020003C014070470000C6
:1028700010B50A4904464FF4800008602068C1681A
:10288000490508D5C16801F0800161F49061C1601B
:102890002046FFF7EBFF0120607710BD143C01409C
:1028A00010B500680B4641680D480140080CD8700F
:1028B000C1F304245C7001F03F049C70C1F3423109
:1028C000197052B902F050FFD870587802F04CFFDE
:1028D0005870987802F048FF9870002010BD0000F2
:1028E0003FFFFF0010B50B460168896A5960016817
:1028F0000969C1F30E019960006801680D48014043
:10290000C1F305401870C1F306245C7001F07F0428
:102910009C70890DD97052B902F026FF1870587852
:1029200002F022FF5870987802F01EFF9870002085
:1029300010BD00007F7F7F0010B5040002D0607FD3
:1029400010B106E0012010BD00202077204600F0E5
:1029500041F8022060772068C168C943C90632D5B2
:10296000CA214162216853204862204602F010FFCC
:1029700020BB20688168164A114081602168886800
:1029800062681043D4E904231A4310438860216825
:10299000E068086120680169228941EA0241016119
:1029A000204602F019FF48B921680A6C22F48022FF
:1029B0000A6421680A6CA3691A430A642268FF2129
:1029C000516208B110BD00200121617710BD0000E7
:1029D000BFFF8FFF10B586B0044618216846FDF78B
:1029E000AFFC0D492068884214D102200090C0013C
:1029F00004906846FFF742FB08B1FEF76DFC0749FB
:102A000001200860002205210320FFF7E7FA0320D8
:102A1000FFF7D7FA06B010BD002800403C0E474231
:102A200070B50446007F0B46012819D00126267791
:102A300002206077B2B19878D97840EA0145587899
:102A40001978000240EA413005432168CA204862F3
:102A5000216853204862204602F09AFED0B122E05D
:102A6000022070BD5878C10603D500F0EF000A308F
:102A70005870D87802F081FE0204587802F07DFE8A
:102A800042EA0022987802F078FE0243187842EA7F
:102A90004035DAE70748054020684560204602F0E7
:102AA0009BFE00B966772268FF21516200212177E1
:102AB00070BD00003FFFFF002DE9F0410446007F9C
:102AC0000D46012823D04FF0010884F81C80022015
:102AD00060772068002780684FEA4060D2B1002804
:102AE00000DBEF70A878297840EA01466878E97839
:102AF000000240EA815006432168CA2048622168EA
:102B000053204862204602F043FEB8B12CE0022078
:102B1000BDE8F081002800DBEF70287802F02DFE80
:102B20000204687802F029FE42EA0022A87802F046
:102B300024FE0243E87842EA8056DDE70D4806406D
:102B4000206806602068816821F480218160D5E9D1
:102B50000301084321688A6810438860204602F018
:102B60003BFE08B984F81D802268FF215162277757
:102B7000CEE700007F7F7F0070B504460B482168D8
:102B8000C860FFF783F905464FF47A7607E000BF87
:102B9000FFF77CF9401BB04201D9032070BD2068CB
:102BA000C0688006F4D5002070BD00005F3F0100C2
:102BB000704770B5040009D0606A002540B12561F6
:102BC0006561A56294F8510040B10CE0012070BD30
:102BD0006068B0F5827FF4D0E561F2E784F8505088
:102BE000204600F045F8022084F851002068016872
:102BF00021F040010160A088218900F4827001F475
:102C000004410843A18901F400610843217C01F0DB
:102C100002010843217D01F001010843218B01F4E9
:102C200000710843217F01F03801084394F8201017
:102C300001F080010843218D01F40051084321680F
:102C40000860A069042101EA104094F8241001F002
:102C500010010843216848602068C16921F40061BF
:102C6000C1616565012084F85100002070BD00003D
:102C700070B586B0064614216846FDF761FB204911
:102C8000306888423AD11F480025016841F48051DC
:102C90000160006800F4805005901A4814380168FB
:102CA00041F0020101600068694600F002000590F1
:102CB000282000900220CDE9010503200390052083
:102CC00004901148FEF7E0FF114C104820604FF0CF
:102CD000806060604020C4E902050001206140007E
:102CE00060618000C4E90605256220466562FEF742
:102CF00073FE08B1FEF7F0FAB464A66306B070BDC7
:102D00000030014044380240000402404064024068
:102D1000BC0600202DE9F84F984616468A46044620
:102D2000FFF7B4F8814694F8510001281ED1BAF19A
:102D3000000F73D0002E71D094F85000012815D0E8
:102D4000012784F85070032084F851000025656540
:102D5000C4F830A0A686E686A563A587E5876564E6
:102D60002564A068B0F5004F03D00CE00220BDE858
:102D7000F88F2068016821F0400101602068016837
:102D800041F48041016020680168490603D401686C
:102D900041F040010160E068B0F5006F606803D069
:102DA00048B3012E27D047E008B1012E1FD1206B78
:102DB00021680088C86006E020688168890709D515
:102DC000216B0988C160206B801C2063E08E401E4F
:102DD000E0860CE0FFF75AF8A0EB0901414503D368
:102DE000B8F1FF3F03D035E0B8F1000F32D0E08EEC
:102DF0000028E1D123E0206B21680078087306E009
:102E00002068816889070AD5216B09780173206BD6
:102E1000401C2063E08E401EE0860DE02BE0FFF7B3
:102E200035F8A0EB0901414503D3B8F1FF3F03D0CA
:102E300010E0B8F1000F0DD0E08E0028E0D14A4636
:102E40004146204602F0A8FD08B120206065A06838
:102E500030B109E084F8517084F85050032086E7BF
:102E60002068C1688068009084F8517004F8505F51
:102E700060680028F3D0012079E7000070B50446AF
:102E800090F8510001281CD1C9B1C2B194F850008A
:102E9000012816D0012084F85000032084F8510046
:102EA000002565652163A286E286A56365642564C5
:102EB000A587E587A068B0F5004F04D00DE001209C
:102EC00070BD022070BD2068016821F040010160E2
:102ED0002068016841F480410160A16C17480864D2
:102EE000A16C1748C863A16C1648C864A06C05653E
:102EF000E38E2268216B0C32A06CFEF7D7FD30B157
:102F0000606D40F01000606584F85050D7E720688D
:102F10000168490603D4016841F04001016084F86A
:102F200050502068416841F02001416020684168AC
:102F300041F002014160002070BD000029590008E5
:102F40003359000807590008704770474FF0E021D7
:102F50000428086903D020F004000861704740F09D
:102F60000400FAE710B5401EB0F1807F01D30120C4
:102F700010BD4FF0E02460610F21601703F06FFE79
:102F80000020A06107202061002010BD704770471D
:102F900070B590F83C20012A2CD0012480F83C40E8
:102FA000022280F83D2003685A689D6822F070066E
:102FB0000A6832435A60104B02689A420ED0B2F14E
:102FC000804F0BD00D4B9A4208D00D4B9A4205D042
:102FD0000C4B9A4202D00C4B9A4204D1496825F01E
:102FE00080031943916080F83D40002180F83C1037
:102FF000084670BD022070BD000001400004004082
:1030000000080040000C00400040014010B50400E2
:1030100003D094F83D0010B107E0012010BD00205E
:1030200084F83C00204600F01EF8022084F83D00A1
:10303000211D206803F07EF9012084F8460084F801
:103040003E0084F83F0084F8400084F8410084F892
:10305000420084F8430084F8440084F8450084F872
:103060003D00002010BD704790F83D10012901D0AF
:1030700001207047022180F83D100168CA6842F0C3
:103080000102CA6000680E4988420ED0B0F1804F3C
:103090000BD00C49884208D00B49884205D00B4917
:1030A000884202D00A49884204D1816801F00701B0
:1030B000062903D0016841F001010160002070473A
:1030C000000001400004004000080040000C0040E7
:1030D0000040014070472DE9F04104460068C66891
:1030E00005694FF00007A90713D5B10711D5F91EDF
:1030F000016101202077206880698007204602D086
:10310000FFF7E8FF04E000F0A7F8204600F04CF9D4
:103110002777680716D5700714D521686FF004006B
:103120000861022020772068806910F4407F2046E3
:1031300002D0FFF7CFFF04E000F08EF8204600F049
:1031400033F92777280715D5300713D521686FF095
:1031500008000861042020772068C06980072046A5
:1031600002D0FFF7B7FF04E000F076F8204600F049
:103170001BF92777E80616D5F00614D521686FF0FD
:1031800010000861082020772068C06910F4407F93
:10319000204602D0FFF79EFF04E000F05DF82046D5
:1031A00000F002F92777E80708D0F00706D0216879
:1031B0006FF001000861204600F050F9280608D59C
:1031C000300606D521686FF0800008612046FFF7C1
:1031D000DDFE680608D5700606D521686FF0400050
:1031E0000861204600F044F9A8060AD5B00608D5C3
:1031F00021686FF0200008612046BDE8F041FFF72C
:10320000C6BEBDE8F081000010B586B004461421AA
:103210006846FDF795F80D492068884214D10C489E
:103220000021026842F002020260006800F0020021
:103230000590012000900220CDE90101CDE90310A5
:1032400069460448FEF720FD06B010BD00040040AA
:103250003038024000040240704770B5044690F8D0
:103260003C0000260D4601280FD0012084F83C00C8
:103270006AB1042A1DD0082A2FD00C2A3FD001267B
:10328000002084F83C00304670BD022070BD2068EC
:1032900003F0B0F82068816941F00801816120687D
:1032A000816921F004018161206881692A691143E3
:1032B00011E0206803F0C6F82068816941F40061DC
:1032C00081612068816921F4806181612068816960
:1032D0002A6941EA02218161D2E7206803F0DEF821
:1032E0002068C16941F00801C1612068C16921F00D
:1032F0000401C1612068C1692A69114311E0206895
:1033000003F0F8F82068C16941F40061C1612068E8
:10331000C16921F48061C1612068C1692A6941EAFB
:103320000221C161ACE710B5040003D094F83D0060
:1033300010B107E0012010BD002084F83C002046B9
:1033400000F01EF8022084F83D00211D206802F0E4
:10335000F1FF012084F8460084F83E0084F83F0025
:1033600084F8400084F8410084F8420084F8430067
:1033700084F8440084F8450084F83D00002010BD26
:1033800008B500680649884208D10648016841F03E
:1033900002010160006800F00200009008BD00001A
:1033A00000040040403802407047000010B5044659
:1033B000022249B104290ED0082913D094F8410003
:1033C000012816D0012010BD94F83E000128F9D143
:1033D00084F83E200FE094F83F000128F2D184F8F1
:1033E0003F2008E094F840000128EBD184F8402009
:1033F00001E084F841200122206802F0EDFF12492B
:103400002068884203D1426C42F400424264206842
:1034100088420ED0B0F1804F0BD00C49884208D0C2
:103420000B49884205D00B49884202D00A4988429C
:1034300004D1816801F00701062903D0016841F039
:1034400001010160002010BD0000014000040040A7
:1034500000080040000C00400040014000680349A3
:10346000884201D1FEF718BD7047000000000140FE
:103470007047704770470000F8B501680446086857
:10348000CA684B6910F00F0F4FF0000559D003F0D8
:10349000010602F49077374365D0C10705D0D10506
:1034A00003D5616C41F001016164410705D5D9077D
:1034B00003D0616C41F002016164810705D5D90731
:1034C00003D0616C41F004016164010707D502F08B
:1034D0002001314303D0616C41F008016164616CEB
:1034E00000293AD0800604D5900602D5204603F084
:1034F00027F920684069616CC0F38010090700D487
:1035000060B3204603F0E7F820684069400621D503
:103510002068143050E8001F21F0400140E80012FC
:10352000002AF5D1E06BA8B16E490165E06BFEF7AA
:1035300040F9002811D0E06B016D01B0BDE8F0400A
:10354000084783060FD593060DD52046BDE8F84001
:1035500003F0F6B82046FFF78DFFF8BD2046FFF7D1
:1035600089FF6564F8BD266B2023012E7DD1C60638
:103570007BD5D60679D508684868009048694FF031
:103580000206400641D5E16B086840680004000C63
:10359000E8D0A28D8242E5D9E085C869B0F5807F88
:1035A0002DD020680C3050E8001F21F4807140E8D5
:1035B0000012002AF5D12068143050E8001F21F0D5
:1035C000010140E80012002AF5D12068143050E8CB
:1035D000001F21F0400140E80012002AF5D184F8D4
:1035E0004230256320680C3050E8001F21F01001A4
:1035F00040E80012002AF5D1E06BFEF791F866630F
:10360000A08DE18D401A81B22AE0A08DE18D401A93
:1036100081B2E08D0028A5D00029A3D022680C3209
:1036200052E8000F20F4907042E80007002FF5D117
:103630002068143050E8002F22F0010240E80027F3
:10364000002FF5D184F84230256320680C3050E813
:10365000002F22F0100240E80023002BF5D1666312
:103660002046FFF706FFF8BDFFE705062BD5150638
:1036700029D594F841002128F5D1A068B0F5805FE4
:1036800001D12069B0B1206A411C21622168007813
:103690004860E08C401E0004000CE084E3D1206808
:1036A000C16821F08001C1602068C16841F040011B
:1036B000C160D8E7206A0088C0F308004860206A2B
:1036C000801C2062E5E74006CDD55006CBD5CA6800
:1036D000204622F04002CA6084F8413000F02CF904
:1036E000C1E70000D965000870B5040004D094F863
:1036F0004100002510B106E0012070BD84F8405063
:10370000204600F045F8242084F841002068C16874
:1037100021F40051C160204603F074F8206801696B
:1037200021F4904101612068416921F02A01416141
:103730002068C16841F40051C1606564202084F8AC
:10374000410084F842006563002070BD10B5044656
:1037500000680C49884214D10B48016821F010011F
:1037600001604FF4C0610948FEF7EAF9E06BFEF72B
:1037700032F8A06BFEF72FF8BDE810402520FEF7C9
:103780000FBC10BD00100140443802400000024050
:103790002DE9F04186B0064614216846FCF7D0FDBD
:1037A00030493068884259D12F480024016841F0DF
:1037B00010010160006800F0100005902A481438DC
:1037C000016841F0010101600068694600F00100F4
:1037D00005904FF4C06000900220CDE90104032061
:1037E0000390072004902148FEF74EFA214D20480F
:1037F0004FF000672860C5E901744FF48068C5E99F
:1038000003486C61AC61EC612C6228466C62FEF787
:10381000E3F808B1FDF760FDF563AE63154D14489C
:1038200060353030E5E802074020A5E81101114875
:1038300045F814496030AC61EC612C626C62FEF7B3
:10384000CBF808B1FDF748FDB5630022052125201E
:10385000AE63FEF7C3FB2520FEF7B3FB06B0BDE861
:10386000F081000000100140443802400000024096
:1038700088640240AC07002090F84230202B01D031
:103880000220704721B11AB10023036303F040B84E
:1038900001207047704770472DE9F843044690F8BF
:1038A0004100984616460D46202802D00220BDE869
:1038B000F88385B17EB100206064212084F8410046
:1038C000FEF7E4FAA6848146E684A0682027B0F5D6
:1038D000805F02D003E00120E9E7206910B12E46A5
:1038E00000250EE000260CE08021204603F058F869
:1038F000A8B9C6B116F8010B21684860E08C401EDB
:10390000E084E08C4B464FF00002CDF800800028A8
:10391000EAD14FF04001204603F042F840B184F86C
:1039200041700320C3E735F8020BC0F30800E3E75A
:1039300084F841700020BAE77047000008B5002005
:10394000184E194FDFF86480194D8DF8000000BF44
:1039500001F082FDC068B0421FD100231A466946BB
:10396000386826F075FEFDF72DFC95F84400A0B9E7
:1039700032F014FFFDF7EDFBD8F8001000F02EF840
:10398000044633F065FD95F84500A04205D0322C81
:1039900003D9782C01D285F84540322026F0BEFDAF
:1039A000D6E700002C0A002048000020500000202C
:1039B000580000201CB5C468064807A190F84520AF
:1039C000684603F025F96946D4F864011CF0AEFF9F
:1039D0001CBD0000580000202564000070B504469E
:1039E0000D462B4813F076F810B1294808F0ECF991
:1039F0002748203013F06EF818B12548203008F021
:103A0000E3F92348403013F065F818B120484030FE
:103A100008F0DAF921461E480FF09EFB1C482946A3
:103A200020300FF099FB1A481A4CD0E9032191423B
:103A30002CD38268914229D34268914226D94269A7
:103A4000914223D38269914220D3C06981421DD91A
:103A50000F48A11C203002690888131AB3F5D57FDE
:103A600014D3488092B20A80101A4EF6602191FB5E
:103A7000F0F1074840300FF06FFB05484030C16956
:103A800021B10721001D00F03BFB2070207870BDA4
:103A9000CC0B002030010020034A92F82420002A99
:103AA00001D1FDF71FB8704758000020FCF7DCBFBC
:103AB00002F014B801F058B801F0AAB8FDF79ABBAB
:103AC000FDF768BB00F06CBF08B50020009005480A
:103AD00090F8500010B9684608F0EFFA009880B2EC
:103AE00008BD00005800002025F0A4BE044991F84C
:103AF000501011B14FF0FF30704708F033BB000099
:103B0000580000200249002081F85500704700004D
:103B1000580000200249012081F85500704700003C
:103B20005800002001F0DEBC01F088BD01F076BD38
:103B300010B586B004001FD0002269460F48FEF77A
:103B4000D1FE002205A90D48FEF7AAFE9DF8170038
:103B5000E0709DF8151061709DF81620A270142376
:103B600000F012F820709DF8000020719DF801000F
:103B700060719DF80200A07106B010BD44060020DF
:103B800001F040BE01F058BE10B5012901D0022954
:103B900003D1401E0C31C0B2C9B21A24491C11FB1A
:103BA00004F10A24B1FBF4F100EB900000EB930068
:103BB00008441044594200EB4100401E00E0C01D83
:103BC0000028FCDB072190FBF1F201FB120000B999
:103BD0000720C0B210BDFEE70EB5574E574C4FF44C
:103BE000FA6700BF32F0DAFD002239465448FEF78A
:103BF000BBFD08B1FDF770FB192252494E48FFF793
:103C00003BFE3068C16841F01001C16008214E4898
:103C1000FFF7CCFB08F09EF801F010FD00F008FD66
:103C2000032506E06D1EA06AEDB2804784F82400EB
:103C30001DB194F824000028F4D1032506E06D1E80
:103C4000E06BEDB2804784F838001DB194F838007D
:103C50000028F4D1032506E06D1E606BEDB28047AD
:103C600084F830001DB194F830000028F4D1032509
:103C700006E06D1EA06DEDB2804784F850001DB1C6
:103C800094F850000028F4D1032506E06D1EA06CC6
:103C9000EDB2804784F8440025B194F84400002830
:103CA000F4D102E010F0FF0F01D1E06C8047FDF786
:103CB000C1F8FDF721F900F09DFD00254FF48C734C
:103CC000F02229462846009500F04BFD0A2008F016
:103CD00057F8322000F064FE1820CDE900504FF66E
:103CE000FF731AA28C214820029500F0EFFE40F2EB
:103CF000DC5008F045F8BD23F02274210020009527
:103D000000F02FFD1BF0BAFD22F090F822F0B2F87F
:103D100011482FF0CBFB10480FF0D3FA0F48006882
:103D200026F016FD33F094FB002032F069FC3220BF
:103D300032F040FC56E700006407002058000020E5
:103D4000440600206C0800201C07002057656C63A7
:103D50006F6D652100000000D008002034000020B5
:103D6000F0B585B000287CD0C4682068002878D0E1
:103D700020F004FC002874D05B4E03A8316888470B
:103D80005A4D9DF81120287882420BD02A7058A1F4
:103D9000684602F03DFF6946E06C1CF0C7FDE8682C
:103DA000401CE8609DF810206878824208D06A7054
:103DB00051A1684602F02CFF6946206E1CF0B6FD4A
:103DC0004A4F9DF80E20A8781437824213D0AA706B
:103DD0009DF80C00287146A1684602F019FF69465B
:103DE000E06D1CF0A3FD287907EB800050F8041C5F
:103DF000206D1CF09BFD9DF80D20E87882421ED0BE
:103E0000EA703DA1684602F003FF6946A06C1CF011
:103E10008DFD9DF80E20AA709DF80C00287134A12C
:103E2000684602F0F5FE6946E06D1CF07FFD2879DA
:103E300007EB800050F8041C206D1CF077FD317CEE
:103E4000687981420CD06971E06814F028F96A79C8
:103E500027A1684602F0DCFE694620691CF066FD79
:103E600000E03EE096F8250095F9061088420FD054
:103E700096F92510A971E06A14F011F995F9062058
:103E80001EA1684602F0C4FE6946606B1CF04EFD40
:103E900096F8260095F9071088420FD096F926105B
:103EA000E971E06B14F0FBF895F9072013A168465F
:103EB00002F0AEFE6946606C1CF038FDB6F8521098
:103EC000288981420DD029810022606F14F057FBB0
:103ED0002A890AA1684602F09BFE6946A06E1CF082
:103EE00025FD05B0F0BD000058000020E8020020CC
:103EF0002530326400000000253264002564000093
:103F000008B519F0D3FD07280CD142F2BE40ADF838
:103F10000000014604480022D0F89000BDE80840A7
:103F200021F0D2BC08BD0000D008002010B519F067
:103F3000BDFD072805D1BDE810400249024801F047
:103F400097BA10BD28030020D008002010B519F042
:103F5000ADFD072805D1BDE810400249024801F037
:103F600087BA10BD88030020D00800202DE9F04159
:103F70008AB0044619F09AFD0646204619F0DDFD88
:103F80004E4D04460C2E28D0272E7DD10221E86A02
:103F90001EF01EF90221E8691EF01AF90221E868F4
:103FA0001EF016F90221E86B1EF012F91221686E5C
:103FB0001EF00EF91221A86B1EF00AF91221A86A50
:103FC0001EF006F91221A8691EF002F9A8680AB0CD
:103FD0001221BDE8F0411EF0FBB81BF0EFFA1BF018
:103FE000F3FA01285FD00024354F364EDFF8D88031
:103FF000042827D0082853D11BF0E0FA1BF036FC28
:10400000A86F1FF01CFFCDE906740594CDE90046AA
:1040100008940994034602940394049400226421B2
:10402000A86F32F06BF8A86F1FF025FFCDE906846A
:104030000594CDE90046089409940346029403943C
:10404000049428E01BF0BAFA1BF010FCA86F1FF0D4
:10405000F6FECDE906740594CDE90046089409946E
:10406000034602940394049400226421A86F32F062
:1040700045F8A86F1FF0FFFECDE9068408940346BB
:1040800009940294039400E00AE06FF07C00059428
:10409000CDE90006049400226421A86F32F02EF8C6
:1040A0000AB0BDE8F0811BF089FA1BF0DFFB0AB013
:1040B0002046BDE8F041054901F0DAB9D0080020FA
:1040C0002B5B0208BF750108575B0208180300202C
:1040D00010B519F0EBFC1C280BD10648C06F14F08A
:1040E000E7F90549C0B208700449096ABDE8104003
:1040F000084710BDD0080020F8010020580000201B
:1041000010B5002205E000BF50F82240521C2344A5
:10411000D2B28A42F8D3B3FBF1F0C0B210BD10B5F1
:1041200086B0044614216846FCF70AF920890090FD
:10413000112001900120029002200390694620681E
:10414000FDF7A2FD6089009069466068FDF79CFD5F
:1041500006B010BD70B506460825002401F0A0FB8E
:1041600015E06006040E0021304601F087FB0220B6
:1041700007F013FE0121304601F080FB012007F01B
:104180000CFE304601F083FB08B144F001046D1EC3
:10419000EDB2E6D20021304601F070FB304601F06E
:1041A0009DFB204670BD10B50446002101F08DFB3B
:1041B000012007F0F2FD0121204601F05FFB002005
:1041C00007F0EBFD0021204601F058FBBDE8104050
:1041D000012007F0E2BD000070B50C460646082538
:1041E00019E000BF01F04AFB022007F0D6FD04F001
:1041F0008001304601F069FB012007F0CEFD60062A
:10420000040E012007F0C9FD0121304601F036FB04
:10421000012007F0C2FD6D1EEDB24FF000013046E7
:10422000E0D201F02BFBBDE87040022007F0B5BDE5
:1042300010B50446012101F048FB012007F0ADFD57
:104240000121204601F01AFB002007F0A6FD002105
:10425000204601F013FBBDE81040012007F09DBD92
:1042600010B50446012101F030FB022007F095FD56
:104270000121204601F002FB002007F08EFD002105
:10428000204601F022FB012007F087FD0021204697
:1042900001F0F4FABDE81040012007F07EBD10B532
:1042A0000446002101F0EAFA022007F076FD002121
:1042B000204601F00AFB012007F06FFD0121204696
:1042C00001F0DCFA012007F068FD0121204601F031
:1042D000FCFABDE81040012007F05FBD70B505464F
:1042E000052401F0DDFA0121284601F0C7FA05E0B6
:1042F000641EA4B2012007F050FD84B1284601F0ED
:10430000C6FA0028F4D1284601F0E8FA0021284630
:1043100001F0B4FA022007F040FD002070BD2846ED
:1043200001F0DCFA2846FFF7BAFF012070BD00005B
:104330002DE9F0411D4617460C468046069EFFF7C4
:104340008FFF6006010E4046FFF746FF4046FFF72D
:10435000C5FF28B14046FFF7A2FF0120BDE8F0816C
:1043600039464046FFF738FF4046FFF7B7FF404663
:10437000FFF776FF012000EB4400C1B24046FFF793
:104380002BFF4046FFF7AAFF00246F1E0AE000BF84
:10439000FFF7E0FE3055BC4202DA4046FFF703FF6C
:1043A000641CE4B2AC424046F2D3FFF741FF404602
:1043B000FFF775FF0020D1E770B516460C4605469D
:1043C000FFF74EFF6006010E2846FFF705FF28465F
:1043D000FFF784FF31462846FFF7FEFE2846FFF729
:1043E0007DFF2846FFF73CFF012000EB4400C1B2EF
:1043F0002846FFF7F1FE2846FFF770FF2846FFF733
:10440000A9FE04462846FFF713FF2846FFF747FF9B
:10441000204670BD2DE9F0411D4616460C46074664
:10442000FFF71EFF6006010E3846FFF7D5FE38463F
:10443000FFF754FF28B13846FFF731FF0120BDE8F0
:10444000F08131463846FFF7C7FE3846FFF746FF92
:1044500029463846FFF7C0FE3846FFF73FFF38468B
:10446000FFF71DFF012007F098FC0020E7E70000A0
:104470001CB50024114D124E124FDFF84C808DF800
:1044800000408DF80440012300226946286826F088
:1044900081F810B9052000F083FA0123002201A958
:1044A000306826F077F820B93C8098F8000000F0DA
:1044B00077FA0A2026F032F8E5E7000044000020F1
:1044C0004800002054000020F801002038B5154CA9
:1044D000154900252088401C80B22080097801EB16
:1044E0008101B0EB410F08D110488DF80050012335
:1044F00000226946006826F0ABF80D482188007854
:1045000000EB8000B1EB400F0AD101208DF80000D4
:1045100003460848258000226946006826F098F87E
:1045200038BD000054000020F401002044000020A9
:10453000F50100204C0000202DE9F0410027244C1B
:10454000DFF8908001253E4610B12570667001E0CD
:104550002078E8B120214046FDF786FC20B11021EB
:104560004046FDF781FC98B1032025F0D7FF2021BC
:104570004046FDF779FC00B9657010214046FDF713
:1045800073FC10B10220607001E06078E0B1267029
:104590006078C8B120214046FDF766FCA0B110212B
:1045A0004046FDF761FC78B9032025F0B7FF2021D4
:1045B0004046FDF759FC38B110214046FDF754FC48
:1045C00010B92570677866703846BDE8F081000044
:1045D000E4000020000002401CB500200126124C1F
:1045E000124D8DF800008DF8040002270020FFF71F
:1045F000A3FF012802D0022811D102E08DF800604B
:1046000001E08DF80070012300226946206826F041
:104610001FF800231A4601A9286826F019F801207E
:1046200025F07CFFE2E70000380000204800002071
:1046300030B587B014216846FBF782FE1848002485
:10464000016841F0010101600068164D00F00100B1
:104650000590202000904FF404100190012002905A
:1046600069462846FDF710FB102000904FF4881093
:10467000CDE9010469462846FDF706FB00221146F4
:104680001720FDF7ABFC1720FDF79BFC002211461D
:104690000A20FDF7A3FC0A20FDF793FC07B030BD0C
:1046A00030380240000002402DE9F04104461D462A
:1046B00016460F462A2000F041FA204600F02EFA56
:1046C000304600F02BFA2B2000F038FA384600F084
:1046D00025FA284600F022FABDE8F0412C2000F02F
:1046E0002DBA0000024900200968C8637047000025
:1046F0001C07002070B55D1A141A641C6D1C14335D
:1047000014316C439BB289B2049EFFF7CDFF0D4D6F
:104710004FF40060E8602868016841F400610160BE
:10472000A2B231462846FEF7A9FB07480068416857
:104730000029FCD10020E8602868016821F40061AC
:10474000016070BD64060020BC06002010B5144650
:104750000B460246FFF7A8FF2046BDE8104000F0D8
:10476000DDB92DE9F04780461F4603F1130083B2FF
:104770001646501E82B20C4601F1140081B240462A
:10478000DDF82090FFF790FF0AE0454604E0484638
:1047900000F0C4F96D1CADB2B542F8D3641CA4B2EC
:1047A000BC42F2D3BDE8F08730B587B0142168462B
:1047B000FBF7C6FD0D48016841F002010160006889
:1047C0004FF4607400F0020005900120CDE9004034
:1047D0000320074D039069462846FDF755FA01224C
:1047E00021462846FDF74DFB07B030BD303802406A
:1047F0000004024010B5FFF7D7FF684C00224FF4C9
:1048000080712046FDF73DFB002280212046FDF708
:1048100038FB642007F0B4FA012280212046FDF71E
:1048200030FB642007F0ACFA112000F087F9782003
:1048300007F0A6FA362000F081F9002000F064F9B4
:104840003A2000F07BF9052000F05EF9B22000F07C
:1048500075F90C2000F058F90C2000F055F90020F3
:1048600000F052F9332000F04FF9332000F04CF9FA
:10487000B72000F063F9352000F046F9BB2000F0C6
:104880005DF9192000F040F9C02000F057F92C2004
:1048900000F03AF9C22000F051F9012000F034F99B
:1048A000C32000F04BF9122000F02EF9C42000F0D4
:1048B00045F9202000F028F9C62000F03FF90F202C
:1048C00000F022F9D02000F039F9A42000F01CF902
:1048D000A12000F019F9E02000F030F9D02000F01C
:1048E00013F9042000F010F90D2000F00DF911204B
:1048F00000F00AF9132000F007F92B2000F004F96A
:104900003F2000F001F9542000F0FEF84C2000F0A8
:10491000FBF8182000F0F8F80D2000F0F5F80B2057
:1049200000F0F2F81F2000F0EFF8232000F0ECF880
:10493000E12000F003F9D02000F0E6F8042000F0B8
:10494000E3F80C2000F0E0F8112000F0DDF813206F
:1049500000F0DAF82C2000F0D7F83F2000F0D4F86F
:10496000442000F0D1F8512000F0CEF82F2000F0C4
:10497000CBF81F2000F0C8F81F2000F0C5F8202059
:1049800000F0C2F8232000F0BFF8212000F0D6F894
:10499000BDE81040292000F0D1B80000000402401A
:1049A000411F5F2909D84FF4967110FB01F0642173
:1049B000B0FBF1F001490968C86370471C0700208B
:1049C0002DE9FF4F81B00446DDF83C9000904FEA9E
:1049D00059074FF00008780700D0012000EBD700FE
:1049E00000FB09FB203AD0B2039002980299484498
:1049F000401E83B2E019401E82B22046FFF754FEEB
:104A0000002553E0B9F10C0F2AD0B9F1100F2ED0C8
:104A1000B9F1180F2ED0B9F1200F49D127490398C9
:104A200001EB8010002610F805A0109800284FF028
:104A3000010000FA06F000EA0A0022D020B1204668
:104A4000049A0299FFF782FE641C0098A4B2201A0F
:104A5000B84225D10298009C401C80B2029023E00D
:104A60000398174900EB400001EB8000DAE7154995
:104A7000039803E00398144900EB400001EB001099
:104A8000D0E708B1049800E00E9800F047F808F16C
:104A90000100C0B2B0FBF7F1804607FB118050B1B6
:104AA000761CF6B2082EC0D36D1CADB25D45A9D3FD
:104AB00005B0BDE8F08F4FF00008F5E780940308DB
:104AC0004C780308C07C0308B08203082DE9FE4F30
:104AD0009946DDE90D6714468A460546DDF83080C3
:104AE0000CE0CDF800804B4651462846CDE90167E1
:104AF000FFF766FF05EB560085B2641C2278002A9A
:104B0000EFD1BDE8FE8F000001B501231A466946CA
:104B10000148FEF7FFF808BD6406002008B5010A49
:104B20008DF800108DF80100012302226946024829
:104B3000FEF7F0F808BD00006406002070B5094DCE
:104B400006464FF40074002221462846FDF799F9E5
:104B50003046FFF7D9FF21462846BDE870400122C4
:104B6000FDF78FB90004024038B5274800240168DA
:104B700041F002010160006800F00200009023484B
:104B8000FFF7CDFA1021232000F0BEF80120FCF73A
:104B9000C5FF2F21202000F0B7F80120FCF7BEFF51
:104BA000202000F0A5F82F2807D00A20FCF7B6FF38
:104BB000641CE4B2032CE5D324E00120FCF7AEFF33
:104BC00000241021002000F09FF80120FCF7A6FF30
:104BD0008021012000F098F80120FCF79FFF0021C0
:104BE000022000F091F80120FCF798FF022000F06D
:104BF0007FF8002807D00A20FCF790FF641CE4B27D
:104C0000032CDED3012038BD3038024018010020CB
:104C100010B50321022000F077F80F21BDE8104005
:104C2000202000F071B810B50021022000F06CF8CF
:104C30002F21BDE81040202000F066B87CB5144656
:104C40000D4606466A460621282000F035F89DF8F4
:104C500001009DF8003043EA002333809DF80300F3
:104C600001029DF80200084328809DF8050001021A
:104C70009DF80400084320807CBD7CB514460D4699
:104C800006466A460621032000F016F89DF800004B
:104C90009DF8013043EA002333809DF802000102B1
:104CA0009DF80300084320809DF8040001029DF850
:104CB0000500084328807CBD2DE9F04190460E4652
:104CC0000546192801D9192700E01E27002409E00C
:104CD0002819C2B239460548FFF76EFB08F80400F0
:104CE000641CE4B2B442F3D3BDE8F08118010020A3
:104CF000192801D9192100E01E2102460148FFF7B9
:104D00005BBB0000180100200B46192801D91921AE
:104D100000E01E2102460148FFF77CBB180100207D
:104D200008B500200A4C8DF800004FF47A75002079
:104D300015F026FEA84205D200231A466946206CCB
:104D400025F086FC23F054FD012025F0E7FBEEE77B
:104D5000080000201A4D08B5DFF868A01A4C01279A
:104D600005F1A80605F5F6784FF000094FF4967B9B
:104D700094F8550010B184F854701DE094F8540074
:104D8000012819D184F8549000F066FBC068A8424D
:104D900009D000F061FBC068B04204D000F05CFBB9
:104DA000C168414506D1012300226946DAF80000B6
:104DB00025F04EFC84F85490584625F0AFFBD7E719
:104DC000D00800204C00002058000020064882B087
:104DD000016841F002010160006800F002000090EB
:104DE000024802B0FFF79BB930380240380100207A
:104DF0007CB514460D4606466B4606223B216820CC
:104E000000F048F800280BD1BDF8001049BA3180F5
:104E1000BDF8021049BA2980BDF8041049BA2180B2
:104E20007CBD3EB50C46054601AA694602A8FFF7BF
:104E3000DFFFBDF8000010FB00F1BDF8040010FB1F
:104E4000001000EE100AB8EEC00A02F093FDBDF9A2
:104E50000800F0EE400A00EE100AB8EEC01A81EE2B
:104E6000200A02F035F8B1EE400A84ED000ABDF9DF
:104E7000000000EE100ABDF90400F8EEC00A00EED2
:104E8000100AB8EEC01A80EE810A02F021F885ED12
:104E9000000A3EBD2DE9F04106461D4614460F4668
:104EA0002048FFF7DDF97006010E1E48FFF794F960
:104EB0001C48FFF713FA28B11A48FFF7F0F9012050
:104EC000BDE8F08139461748FFF786F91548FFF726
:104ED00005FA1448FFF7C4F9012000EB4600C1B2FF
:104EE0001048FFF779F90F48FFF7F8F90BE00D4884
:104EF000012C0FD0FFF72EF928700A48FFF753F95D
:104F0000641EE4B26D1C002CF1D10648FFF7C7F90E
:104F10000020D5E7FFF71EF928700248FFF788F94F
:104F2000EEE70000380100202DE9F04104461E465E
:104F300015460F461548FFF793F96006010E134812
:104F4000FFF74AF91148FFF7C9F980B939460F4808
:104F5000FFF742F90D48FFF7C1F900240FE0315D7A
:104F60000A48FFF739F90948FFF7B8F928B10748A7
:104F7000FFF795F90120BDE8F081641CE4B2AC4272
:104F8000EDD30248FFF78BF90020F4E73801002049
:104F90001CB501A96846FFF744FF00984FF07C510B
:104FA00088420ADC4FF03F42904206D8019888427E
:104FB00003DC904201D801201CBD00201CBD000074
:104FC0007FB500241548009401940294124903947B
:104FD00001604FF48031C0E901140461047680F867
:104FE00020400F49C0E90A140125C561C46080F85A
:104FF00030404561FCF75FFA08B1FCF76DF90095A8
:10500000CDE9015469460548FCF7A0F9002801D014
:10501000FCF762F97FBD000000200140FC05002084
:105020000100000F114808B5016841F480010160DA
:105030000068002200F48000009005213A20FCF76F
:10504000CDFF3A20FCF7BDFF002205214420FCF7EC
:10505000C5FF4420FCF7B5FF002205214620FCF7E0
:10506000BDFFBDE808404620FCF7ABBF303802402A
:1050700010B501F0D7FC044A0021044825F094FB48
:105080000349086010BD0000A8760308D15F00083E
:10509000000000200D4808B5016841F004010160DE
:1050A000016801F004010091016841F00101016013
:1050B000016801F001010091016841F00201016005
:1050C000006800F00200009008BD00003038024087
:1050D00030B587B014216846FBF732F9294800241F
:1050E00027490594C0E900147F218160FF21C0E9B0
:1050F000031444618461FDF71FFC08B1FCF7ECF870
:1051000000212048FDF726FB45F25005A84234D087
:1051100011208DF8000059208DF8010055208DF8E0
:10512000020003940122694616480494FDF7C4FC6A
:1051300008B1FCF7D1F807208DF8140005208DF890
:10514000150021208DF8160023208DF8170001226C
:1051500005A90C48FDF764FC08B1FCF7BDF8002276
:105160004FF4FA610748FDF7FFFA08B1FCF7B4F80D
:105170002A4600210348FDF7F2FA07B030BD0000CF
:105180000028004044060020104810B50E49016078
:105190004FF482714160002102228160C0E9031254
:1051A000012242615202C0E906210162416281622C
:1051B0000A21C162FDF7FDFC002803D0BDE81040C4
:1051C000FCF78AB810BD00000030014064060020E2
:1051D00010B58AB0002407941C2168460894FBF798
:1051E000AFF81648144901606321C0E901144FF477
:1051F0009671C0E903148461FEF795F808B1FCF7D5
:105200006BF8079407A90D480894FDF7C1FE08B193
:10521000FCF762F86020CDE9000402940822694698
:1052200006480494FEF719F808B1FCF755F803484E
:10523000FDF7EAFF0AB010BD000400401C07002083
:105240000C4810B50A4901604FF416514160002125
:1052500081600C22C160C0E904128161C161FEF766
:1052600043FA002803D0BDE81040FCF735B810BD64
:105270000010014064070020FEE7000010B518F0A0
:1052800015FC072805D1BDE810400249024800F08E
:10529000EFB810BDFC010020D008002010B518F0B8
:1052A00005FC072805D1BDE810400249024800F07E
:1052B000DFB810BD5C020020D008002010B518F047
:1052C000F5FB072805D1BDE810400249024800F06F
:1052D000CFB810BD8C020020D008002010B518F007
:1052E000E5FB072805D1BDE810400249024800F05F
:1052F000BFB810BDA0020020D008002010B518F0E3
:10530000D5FB072805D1BDE810400249024800F04E
:10531000AFB810BDB4020020D008002010B518F0BE
:10532000C5FB072805D1BDE810400249024800F03E
:105330009FB810BDC4020020D008002010B518F09E
:10534000B5FB072805D1BDE810400249024800F02E
:105350008FB810BD88030020D008002010B518F0C9
:10536000A5FB072805D1BDE810400249024800F01E
:105370007FB810BD98030020D008002070B5044607
:1053800018F094FB0546204618F0D7FB04460C2D78
:105390000ED11AF013F91AF017F9022808D11AF0F1
:1053A0000DF91AF063FA2046BDE8704000F002B82B
:1053B00070BDFEE7F8B5124C0646207E002814D0DA
:1053C000204625F08CFA207E012578B104EB800080
:1053D00050F8044C3046616888470095E068002327
:1053E00064220068092121F013F8F8BD054904483A
:1053F00025F083FA0449024825F07FFA024CE9E7D8
:10540000B00B0020D802002018030020F8B5114C82
:105410000646207E00281CD00125207E012818D9B0
:105420000C4825F05CFA207E04EB800050F8040C58
:105430004168304688470095207E002304EB8000B9
:10544000642250F8040C0921C068006820F0E0FFD5
:10545000E3E7F8BDB00B00200448017E21B100EB6A
:10546000810050F8040C704700207047B00B0020FA
:1054700038B50F4A0C460546117E052916D229B1CA
:1054800002EB810050F8040C8068804721460848F0
:1054900025F033FA61682846884701200090E068CB
:1054A000002364220068092120F0B2FF38BD00000B
:1054B000B00B002070B50949054600200876084960
:1054C000064825F01AFA064C284661688847E068C5
:1054D0000068BDE8704015F0C3BA0000B00B0020B2
:1054E000D802002070B5FBF76BFC10EE104AFBF7FA
:1054F0009FFD58B12046FBF7EEF89FED2A1B53ECB9
:10550000112BFAF7F4FFFBF7F9F804462748844219
:1055100001DD642544E0264826492044884201D81C
:105520005A253DE0244821182448814201D85025BD
:1055300036E02349621823498A4201D246252FE0EA
:10554000214A2244824201D23C2529E01F481B4ABD
:105550002044521E904201D8322521E01C481D4AA9
:105560002044904201D828251AE01B481B4A2044B9
:10557000904201D81E2513E01948164A2044521CB7
:10558000904201D814250BE016482044884201D2ED
:105590000A2505E0144815492044884200D2052513
:1055A000284670BDFCA9F1D24D62C03F66668640B8
:1055B0007A147EBFE07A0400AE4781BF3333030024
:1055C000B81E85BF0AD70300EB5188BF1E858BBF6D
:1055D000A3708DBF84EB010051B88EBFAD470100B1
:1055E000D7A390BFE17A94BF3333A3BF52B80E0064
:1055F00010B518F05BFA1C280BD10648D0F8D4027D
:1056000012F056FF5A2804DB03488069BDE81040B9
:10561000004710BDD00800205800002001220821BA
:105620000148FCF72EBC00000000024001220821C6
:105630000148FCF726BC00000000024010B500F055
:1056400005F8BDE81040FFF7F1BF000030B587B0A6
:1056500014216846FAF774FE16480024016841F0E8
:10566000010101600068144D00F001000590224620
:1056700008212846FCF705FC082000900120CDE910
:105680000104694628460394FCF7FEFA04200090C2
:105690004FF44410CDE9010469462846FCF7F4FABA
:1056A000002211460820FCF799FC0820FCF789FC31
:1056B00007B030BD303802400000024010B52DED7B
:1056C000028BFBF72EFE00EE100ADFED240AB8EE87
:1056D000C00A20EE208AFBF70FFE00EE100A9FEDB5
:1056E000201A2048B8EEC00AB0F90810C0EE010A2E
:1056F00000EE101AB0F90C1001EE101AB8EEC00A44
:10570000B0F90410B8EEC11A00EE810A90ED051A46
:1057100028EE202AB8EEC11A00EE801A90ED040A95
:10572000B8EEC00A00EE810A01EE101AB0F90610B8
:10573000B0F90A00B8EEC11A01EE900A08EE010AAB
:1057400001EE101AF8EEE11ABDEC028BB8EEC11AA8
:1057500000EEA11A02EE010A10BD000000000036A2
:105760000000C049F4000020010901EB810100F0B4
:105770000F0000EB4100C0B27047002102E00A3880
:10578000C0B2491C0A28FAD2090740EA11607047E2
:105790002DE9F041044600680025C168490618D487
:1057A000C16841F08001C160FCF770FB06464FF410
:1057B0007A78042707E000BFFCF768FB801B4045B0
:1057C00001D9677701252068C068400601D4002D03
:1057D000F2D02846BDE8F08170B504460068002587
:1057E000C16821F08001C16020688068800606D40D
:1057F0002046FDF7C1F910B1042060770125284645
:1058000070BD000008B5002300938DF802208DF8CC
:1058100001108DF80300142331F0B8F88DF8000062
:10582000002269460348FDF7FBF8002801D0FBF78A
:1058300053FD08BD4406002070B586B00D460646EF
:10584000144614216846FAF77BFD8DF800608DF848
:1058500001508DF80240002269460448FDF72CF9FA
:10586000002801D0FBF738FD06B070BD44060020CB
:105870000148FCF7FDBF0000440600204289406853
:1058800011B18169114300E011048161704710B5C5
:1058900001890068FCF7E8FA012800D0002010BD5B
:1058A00010B586B0044614216846FAF749FD2089F0
:1058B0000090002001900120029002200390694690
:1058C0002068FCF7E1F906B010BD0289006811B14B
:1058D0008169114300E011048161704710B586B001
:1058E000044614216846FAF72BFD20890090112008
:1058F0000190002002900220039069462068FCF786
:10590000C3F906B010BD10B5806B01684A6822F07B
:1059100003024A60416D41F010014165012180F8A8
:105920005110FDF745F910BD10B5806BFDF70DFB6B
:1059300010BD38B50546846BFCF7A8FA0246286806
:105940000068C00523D42068416821F0200141602F
:105950002068416821F0020141606421204600F086
:105960001BF818B1606D40F020006065A068002150
:1059700018B92068C26880680090E186012084F828
:105980005100606D18B12046FDF712F938BD204670
:10599000FDF7DAFA38BD0000F8B515460E460B469D
:1059A000009204460122022100F02CF8A0B913480D
:1059B00013490068B0FBF1F04FF47A71484300904E
:1059C0006068B0F5827F0DD13346002280212046E9
:1059D000009500F017F870B1606D40F02000606530
:1059E0000320F8BD009830B1401E00902068806808
:1059F000C0430006F6D50020F8BD0000700100206D
:105A000000366E012DE9F8431E469146884604464D
:105A1000089DFCF73BFA401B351AFCF737FA07469E
:105A200025480068C0F3CB30684338E0701C37D09D
:105A3000FCF72CFAC01BA84203D215B1009860B342
:105A40002CE02068416821F0E00141606068B0F519
:105A5000827F0BD1A068B0F5004F02D0B0F5806F07
:105A600004D12068016821F040010160A06AB0F50E
:105A7000005F09D12068016821F4005101602068AD
:105A8000016841F400510160012084F851000020B8
:105A900084F850000320BDE8F8830025401E0090E4
:105AA0002068816838EA010004D000214945BDD151
:105AB0000020F0E70121F9E770010020024676217D
:105AC0000148FEF779BC00000C0100200B4602469D
:105AD00076210148FEF79EBC0C01002038B5224813
